:020000000E29C7
:10000800F400030EF5000B1D0F280B11F10AD9306F
:100018000313831281000B1C182803138312061F75
:10002800880A861F88030B10750E8300F40E740E61
:020038000900BD
:100200008A010A1482073F3406345B344F34663463
:100210006D347D3407347F3467343F3403178316DD
:1002200088018901031383168501870188018901EB
:1002300003138316061786170610861006118611FB
:100240000313831285018601870188018901031345
:10025000831615101511951115179517031383168D
:1002600016101611961116179617031383128B1773
:100270008B168B150B10031383160F178F120F1687
:100280000F14031383168113811281110115811438
:100290000114F001F301F201F10103138312D930CB
:1002A0008100860AF00AF20A7208002187005E21A6
:1002B0007108323C031D5829F101512970080A3C8C
:1002C000031D0800730A730800218500F00108006F
:04400E00E430FF3F5C
:00000001FF
