:020000000029D5
:10000800F200030EF3000B1D0F280B11F10AD93073
:100018000313831281000B1C182803138312061F75
:10002800850A861F85030B10730E8300F20E720E6D
:020038000900BD
:10020000031783168801890103138316850187016B
:1002100088018901031383160617861706108610B6
:100220000611861103138312850186018701880157
:1002300089010313831615101511951115179517BC
:10024000031383161610161196111617961703131B
:1002500083128B178B168B150B10031383160F1736
:100260008F120F160F14031383168113811281113D
:10027000011581140114F101031383128100860A10
:0C0280007108323C031D4029F1013F29A8
:04400E00E430FF3F5C
:00000001FF
