:020000001429C1
:10000800F400030EF5000B1810200B191A20750EBA
:100018008300F40E740E09000B1C080003138312EE
:10002800061F880A861F88030B100800D93003139F
:10003800831281000B11F10A7108323C031D08007C
:10004800F1012628860AF20A72080A3C031D0800F4
:100058002D28F30A7308F201063C031D0800F2017B
:04006800F301080098
:100200008A010A140F3982073F3406345B344F34B5
:1002100066346D347D3407347F34673477347C340E
:1002200039345E34793471340317831688018901B7
:10023000031383168501870188018901031383163F
:1002400006178617061086100611861103138312EF
:100250008501860187018801890103138316151022
:1002600015119511151795170313831616101611EE
:10027000961116179617031383128B178B168B156F
:100280000B10031383160F178F120F160F1403137F
:100290008316811381128111011581140114F0015B
:1002A000F301F201F10103138312D93081007208C6
:0C02B000002187007308002185005729F9
:04400E00C420FF3F8C
:00000001FF
