:020000000E29C7
:10000800F100030EF2000B1C10280B100618850ACD
:10001800861885030B101028720E8300F10E710EDE
:020028000900CD
:100200008A010A140F3982073F3406345B344F34B5
:1002100066346D347D3407347F34673403178316B6
:1002200088018901031383168501870188018901EB
:1002300003138316061486140615861503138312FA
:10024000850186018701880189010313831615142E
:100250009514151595150313831616149614161573
:0E0260009615031383128B178B150B1036297E
:04400E00E43FFF3F4D
:00000001FF
